:020000040800F2
:10000000A8060020450700086503000867030008EC
:1000100033050008370500083B0500080000000014
:100020000000000000000000000000003F05000884
:1000300041050008000000004305000845050008D0
:100040005F0700085F0700085F070008FD0400085D
:100050005F0700085F0700085F0700085F070008E8
:100060006B0300085F0700085F0700085F070008D0
:100070005F0700085F0700085F0700085F070008C8
:100080005F0700085F0700085F0700085F070008B8
:100090005F0700085F0700085F0700085F070008A8
:1000A0005F0700085F0700085F0700085F07000898
:1000B0005F070008C50400085F0700085F07000825
:1000C0005F0700085F0700085F0700085F07000878
:1000D0005F070008350400086F0400085F07000888
:1000E000B70300085F0700085F0700085F07000804
:1000F0005F0700085F0700085F0700085F07000848
:100100005F0700085F0700085F0700085F07000837
:100110005F0700085F0700085F0700085F07000827
:100120005F0700085F0700085F0700085F07000817
:1001300000F002F800F03CF80AA090E8000C8244BD
:100140008344AAF10107DA4501D100F031F8AFF29A
:10015000090EBAE80F0013F0010F18BFFB1A43F0A5
:10016000010318474042000060420000103A24BFDB
:1001700078C878C1FAD8520724BF30C830C144BF0C
:1001800004680C607047000000230024002500264E
:10019000103A28BF78C1FBD8520728BF30C148BFEA
:1001A0000B6070471FB503F0F0FD1FBD10B510BD0B
:1001B00003F02BFA1146FFF7F5FF00F009F803F002
:1001C00049FA03B4FFF7F2FF03BC03F053FA00004F
:1001D0001FB502F0A9FF02F0FDFE02F031FE02F0B1
:1001E0009FFE002003F0D4F8002300934FF6E07345
:1001F00048A20A21084603F069F9002300934FF64C
:10020000E0734DA264210A2003F060F980E04FF012
:100210000008C14614E001214C4802F0BCF800BFC0
:1002200002214A4802F00FFA0028F9D0474802F0AC
:1002300045F940441FFA80F809F1010000F0FF0978
:10024000B9F10A0FE7DB0121414800F08CFB20B92E
:100250000121404800F0A1FB03E001213D4800F0EE
:100260009EFB642002F030FE0A2098FBF0F01FFA9B
:1002700080F8404603F090FB06464FF06632364B5E
:1002800003F09EFB04460022344B03F02DFACDE927
:10029000000103F0F7F982463149504603F0AEFC05
:1002A000044603F08BFC1FFA80F8642098FBF0F002
:1002B0003030C0B28DF808002E208DF8090064207F
:1002C00098FBF0F100FB11800A2190FBF1F0303037
:1002D000C0B28DF80A00642098FBF0F100FB118099
:1002E0000A2190FBF1F201FB12003030C0B28DF810
:1002F0000B0056208DF80C0000208DF80D00002317
:1003000000934FF4784302AA6421A02003F0DEF8A2
:100310007DE70000546869732069732061204144BF
:1003200043312D4368616E6E656C312D5041312033
:10033000436865636B210000546865204144205682
:10034000616C75652069733A00000000002401406B
:10035000000801400010014066660A400000B040FD
:100360000000C842704700BFFEE710B5042001F04E
:1003700085F801281ED101F092F80A2002F0A4FDB0
:100380000421714800F0EFFA68B901216F4800F0CC
:10039000F7FA20B901216D4800F0FFFA03E00121CE
:1003A0006A4800F0FCFA00BF0421674800F0DBFA5D
:1003B0000028F9D010BD2DE9F041002400260025C9
:1003C00030E04FF40041624800F0CDFA012829D115
:1003D00003F001F90446FA2C00DB24E0C82C03DB0F
:1003E000FA2C01DA01260AE03C2C03DB5A2C01DA54
:1003F000012704E00A2C02DB322C00DA0027012E50
:100400000ED1544800684000524908600846006810
:1004100038440860202D03DB01204F49087002E0BA
:10042000681CC5B2CDE700BF4FF4004001F037F8BB
:10043000BDE8F08110B54021484800F0DBFE40F2F5
:100440002551464800F0DFFE80B1444800F05BFED5
:100450004349087008460178404800F050FE00BF4C
:1004600080213E4800F0B9FE0028F9D010BD10B53B
:1004700040213C4800F0BEFE40F22551394800F0D2
:10048000C2FEF0B1374800F03EFE3749087008213F
:100490002F4800F082FA012002F016FD3248017860
:1004A000304800F02CFE00BF80212E4800F095FE61
:1004B0000028F9D0022002F007FD0821244800F0AE
:1004C0006EFA10BD10B50121284801F0CDFE284874
:1004D0000078401C26490870084600783C280CD15A
:1004E0000020087023480078401C22490870084604
:1004F00000783C2801D10020087010BD10B5012003
:1005000002F066F9A0B1012002F073F901201A4946
:10051000087001210D4800F026FA012804D10121BC
:100520000A4800F03CFA03E00121084800F035FADF
:1005300010BD00BFFEE700BFFEE700BFFEE770474B
:1005400070477047704700000018014000100140DC
:10055000002001403000002034000020003801401D
:100560000000002000440040010000200004004082
:1005700045000020460000202C0000200021002023
:10058000674A126842F48032654B1A6000BF644AC1
:10059000126802F40030491C10B9B1F5A06FF6D111
:1005A0005F4A126812F4003F01D0012000E00020F1
:1005B000012842D15B4A126842F01002594B1A607E
:1005C0001A46126822F003021A601A46126842F0B4
:1005D00002021A60524A5268514B5A601A465268D7
:1005E0005A601A46526842F480625A601A4652684B
:1005F00022F47C125A601A46526842F4E8125A6099
:100600001A46126842F080721A6000BF444A1268AB
:1006100012F0007FFAD0424A526822F00302404BA7
:100620005A601A46526842F002025A6000BF3C4AC1
:10063000526802F00C02082AF9D1704710B5FFF792
:100640009DFF10BD10B53648006840F001003449E8
:100650000860084640683449084031494860084607
:100660000068324908402E4908600846006820F4B6
:10067000802008600846406820F4FE0048604FF47F
:100680001F008860FFF7DAFF4FF00060284908601C
:1006900010BD10B5002100200022214B5B6803F043
:1006A0000C0121B1042906D0082928D107E0214BEB
:1006B000214C236027E01F4B1F4C236023E0184B85
:1006C0005B6803F47010164B5B6803F480320223FE
:1006D00003EB904022B9194B4343174C23600DE0C4
:1006E0000F4B5B6813F4003F04D0144B4343124C90
:1006F000236003E00F4B43430F4C236003E00D4B9B
:100700000D4C236000BF00BF054B5B68C3F30313B0
:100710000B4CE15C084B1B68CB40074C236010BDC1
:1007200000100240002002400000FFF8FFFFF6FE2C
:1007300008ED00E000127A000400002000093D00EE
:10074000080000200948804709480047FEE7FEE707
:10075000FEE7FEE7FEE7FEE7FEE7FEE7FEE7FEE771
:1007600004480549054A064B704700004506000845
:1007700031010008A8000020A8060020A8020020DF
:10078000A802002010B50446CA48844208D10121BD
:10079000042000F024FB0021042000F020FB46E0B0
:1007A000C548844208D10121082000F018FB00212F
:1007B000082000F014FB3AE0C048844208D101212F
:1007C000102000F00CFB0021102000F008FB2EE0B0
:1007D000BB48844208D10121202000F000FB002109
:1007E000202000F0FCFA22E0B648844208D1012122
:1007F000402000F0F4FA0021402000F0F0FA16E06A
:10080000B148844208D10121802000F0E8FA00219B
:10081000802000F0E4FA0AE0AC48844207D10121CC
:10082000801500F0DCFA0021A01500F0D8FA10BD08
:1008300010B50121084600F0D2FA0021012000F095
:10084000CEFA10BD2DE9F041024600250026002019
:1008500000230024002791F803C00CF00F0591F845
:1008600003C01CF0100F03D091F802C04CEA05053C
:10087000B1F800C01CF0FF0F31D0146800202BE04D
:100880004FF0010C0CFA00F3B1F800C00CEA0306BB
:100890009E4220D183004FF00F0C0CFA03F7BC43AB
:1008A00005FA03FC4CEA040491F803C0BCF1280FDC
:1008B00006D14FF0010C0CFA00FCC2F814C00AE09B
:1008C00091F803C0BCF1480F05D14FF0010C0CFAB0
:1008D00000FCC2F810C0401C0828D1D31460B1F845
:1008E00000C0BCF1FF0F34DD546800202EE000F1A1
:1008F000080C4FF0010808FA0CF3B1F800C00CEA3C
:1009000003069E4221D183004FF00F0C0CFA03F72F
:10091000BC4305FA03FC4CEA040491F803C0BCF1A3
:10092000280F05D100F1080C08FA0CF8C2F8148061
:1009300091F803C0BCF1480F07D100F1080C4FF04B
:10094000010808FA0CF8C2F81080401C0828CED321
:100950005460BDE8F0814FF6FF7101800221817083
:100960000421C17070470246002093680B4201D0F9
:10097000012000E0002070470146886880B270477F
:1009800002460020D3680B4201D0012000E0002085
:1009900070470146C86880B2704701617047416185
:1009A00070470AB1016100E041617047C160704762
:1009B0004FF480320A438261816182618269826977
:1009C000704702460020424B18684FF6807318406B
:1009D00040EA021008433E4B186070473D49C86129
:1009E0007047F0B50A46002300240021002500F0DE
:1009F0000046B6F1004F02D1354EF16901E0344EA8
:100A00007168C0F3034583B200F44016B6F5401F89
:100A100008D121F070612E4E766826F070662C4F5A
:100A20007E6012E000F48016B6F5801F06D1032622
:100A300006FA05F4A14341F0706106E0460D360167
:100A400003FA06F6B14341F0706122B1460D36015A
:100A500003FA06F6314300F00046B6F1004F02D12A
:100A60001B4EF16101E01A4E7160F0BD30B50022FD
:100A70008B071C0F0F2303FA04F2154B08338C105D
:100A800053F824309343124C08348D1044F8253029
:100A900023468C1053F824308C07240F00FA04F4FA
:100AA00023430B4C08348D1044F8253030BD0A49DF
:100AB0000860704700080140000C01400010014030
:100AC0000014014000180140001C014000200140BA
:100AD0000000014000002042DC002042DB480068AA
:100AE00040F00100D949086008464068D8490840EC
:100AF000D649486008460068D6490840D34908608E
:100B00000846006820F4802008600846406820F409
:100B1000FE0048604FF41F0088607047CB490968A9
:100B200021F48031C94A11601146096821F48021FD
:100B30001160B0F5803F03D0B0F5802F0ED106E0F4
:100B4000C249096841F48031C04A116007E0BF49D9
:100B5000096841F4A021BD4A116000E000BF00BF58
:100B6000704710B501460022002300204A11012AD7
:100B700002D1B64C236806E0022A02D1B34C236AA4
:100B800001E0B24C636A01F01F02012494401C4250
:100B900001D0012000E0002010BD70B50024002528
:100BA000002600BF3120FFF7DCFF0646641CB4F5C9
:100BB000A06F01D0002EF5D03120FFF7D2FF08B191
:100BC000012500E00025284670BD014600209F4A0F
:100BD000106820F0F80040EAC100106070479E499C
:100BE0000860704702460020984B586820F47C103B
:100BF00042EA01031843954B5860704796490866CE
:100C0000704701460020914A506820F003000843D5
:100C1000506070478D48406800F00C0070470146F6
:100C200000208A4A506820F0F00008435060704766
:100C300001460020854A506820F4E0600843506077
:100C4000704701460020814A506820F4605040EA15
:100C5000C1005060704729B17C4A527A02437B4BF5
:100C60005A7206E0794A527AC343DBB21A40774B94
:100C70005A72704779490860704701460020734AEC
:100C8000506820F440400843506070470021744A87
:100C900011706E4A82F82010012802D0042808D171
:100CA00003E001216E4A117004E005216C4A1170C5
:100CB00000E000BF00BF70476A49086070476349A1
:100CC000096A0143614A11627047674908607047C9
:100CD00030B500210022002400235C4D6D6805F032
:100CE0000C0121B1042905D0082923D105E05F4D6D
:100CF000056022E05D4D05601FE0544D6D6805F410
:100D00007012524D6D6805F48034022505EB924255
:100D10001CB9574D554305600BE04C4D6D6815F4FB
:100D2000003F03D0524D5543056002E04F4D5543FF
:100D3000056002E04D4D056000BF00BF434D6D688A
:100D400005F0F00109094B4D6B5C0568DD4045601D
:100D50003E4D6D6805F4E061090A464D6B5C4568DF
:100D6000DD408560394D6D6805F46051C90A414D1B
:100D70006B5C4568DD40C560344D6D6805F44041ED
:100D8000890B3D4D6B5CC568B5FBF3F5056130BD66
:100D900029B12E4A526902432C4B5A6104E02B4A76
:100DA00052698243294B5A61704729B1274A926997
:100DB0000243264B9A6104E0244A92698243234B02
:100DC0009A61704729B1214AD26902431F4BDA6107
:100DD00004E01E4AD26982431C4BDA61704729B194
:100DE0001A4AD2680243194BDA6004E0174AD26803
:100DF0008243164BDA60704729B1144A12690243E4
:100E0000124B1A6104E0114A126982430F4B1A61B6
:100E100070471A49086070470F49C86470470B490A
:100E2000C87170470948406A40F0807007494862BD
:100E3000704701460020054A92680A4201D001200D
:100E400000E000207047014988727047001002409E
:100E50000000FFF8FFFFF6FE00004242D8004242C9
:100E600020100240800442423C04424200127A00B8
:100E700000093D00180000202800002040044242E4
:100E800010B50446FC48844209D101218803FFF7CC
:100E9000A6FF00214FF48040FFF7A1FF32E0F748A2
:100EA000844209D101214804FFF7A6FF00214FF435
:100EB0000030FFF7A1FF25E0F148844209D101216C
:100EC0008804FFF799FF00214FF48020FFF794FF7B
:100ED00018E0EC48844209D10121C804FFF78CFFD7
:100EE00000214FF40020FFF787FF0BE0E648844223
:100EF00008D101210805FFF77FFF00214FF4801082
:100F0000FFF77AFF10BD2DE9F04786B005460E4683
:100F10000024A24600BFA1460027B08900B100BF4F
:100F20002F462C8A4CF6FF700440F08804432C8234
:100F3000AC894EF6F3100440B088318908437189BA
:100F400008430443AC81AC8A4FF6FF400440B089AB
:100F50000443AC8201A8FFF7BBFEC748874202D119
:100F6000DDF810A001E0DDF80CA0A88910F4004F16
:100F700008D00AEBCA0000EB0A1031684900B0FB48
:100F8000F1F807E00AEBCA0000EB0A1031688900AB
:100F9000B0FBF1F86420B8FBF0F0040120096421F3
:100FA00001FB1089A88910F4004F08D0322000EB13
:100FB000C900B0FBF1F000F00700044308E0322064
:100FC00000EB09106421B0FBF1F000F00F000443C6
:100FD0002C8106B0BDE8F0874FF416510160002166
:100FE0008180C18001810C21418100218181704774
:100FF00010B502460020108A4FF2FF0318400B88FC
:101000004C8823438C882343CC8823431843108285
:1010100010BD0021018041808180C180704721B1D5
:10102000828942F40052828104E082894DF6FF7386
:101030001A4082817047F0B503460024002600253F
:101040000020A1F510676A3F00D100BF1846C1F328
:10105000421401F01F06012707FA06F5012C01D101
:101060000C3004E0022C01D1103000E014301AB131
:1010700007682F43076002E00768AF430760F0BDD1
:1010800010B51AB1838A0B43838204E0838ACC4370
:10109000A4B22340838210BD028A4FF6F0731A4037
:1010A0000282028A0A430282704782894FF2FF73EA
:1010B0001A40828182890A438281704721B18289E4
:1010C00042F00202828104E082894FF6FD731A40E9
:1010D00082817047028A4FF6DF731A400282028AC9
:1010E0000A430282704721B1028A42F4804202829E
:1010F00004E0028A4BF6FF731A4002827047C1F384
:1011000008028280704701468888C0F30800704753
:10111000818941F0010181817047028BD2B2028343
:10112000028B42EA012202837047028B02F47F4263
:101130000283028B0A430283704721B1828A42F004
:101140002002828204E0828A4FF6DF731A40828294
:10115000704721B1828A42F01002828204E0828AC2
:101160004FF6EF731A408282704721B1828A42F0B3
:101170000802828204E0828A4FF6F7731A40828264
:10118000704721B1828942F40042828103E0828962
:10119000C2F30E028281704721B1828A42F400625A
:1011A000828204E0828A4FF2FF731A408282704783
:1011B000828A4FF6FB731A408282828A0A438282B5
:1011C000704721B1828A42F00202828204E0828A60
:1011D0004FF6FD731A408282704702460020B1F537
:1011E000007F00D100BF13880B4201D0012000E036
:1011F0000020704701F40072B2F5007F00D100BFFB
:10120000CA430280704770B50246002400230025BF
:101210000020A1F510666A3E00D100BFC1F342155F
:1012200001F01F03012606FA03F3012D02D196896E
:10123000334006E0022D02D1168A334001E0968A3F
:1012400033400C12012606FA04F41688344013B118
:101250000CB1012000E0002070BD10B50022002379
:10126000A1F510646A3C00D100BF0A120124944029
:10127000A3B2DC43048010BD0038014000440040AC
:1012800000480040004C00400050004036490143F7
:10129000364A1160704770B5002100230F22C478D0
:1012A0004CB3324C246804F4E064C4F5E0644FEAC3
:1012B0001421C1F1040322FA01F2447804FA03F183
:1012C000847804EA020444EA01014FEA0111284C3F
:1012D0000678A155047804F01F054FF0010404FAC4
:1012E00005F405784FEA65154FF0E02606EB850515
:1012F000C5F8004109E0047804F01F050124AC4062
:101300001C4D0678761145F8264070BD1A4A0A40F1
:1013100002431A4B1A60704741B1194A126842EAF7
:1013200000024FF0E023C3F8102D07E0144A1268C2
:1013300022EA00024FF0E023C3F8102D7047042882
:1013400008D14FF0E021096941F004014FF0E0229B
:10135000116107E04FF0E021096921F004014FF02D
:10136000E0221161704700000000FA050CED00E07A
:1013700000E400E080E100E080FFFF1F08ED00E0F6
:1013800010ED00E00020474908604749C1F8040417
:101390004649086001F10401086045484549086074
:1013A000704700213F498279DAB33F4AD2F80024DE
:1013B00003689A433C4BC3F800241A46D2F804242D
:1013C00003689A4301F104031A60027911440A6820
:1013D000036842EA03020A60334AD2F80824036829
:1013E00022EA0302304BC3F808241A46D2F80C2430
:1013F000036822EA0302304B1A604279102A11D1A5
:10140000294AD2F8082403681A43274BC3F8082452
:101410001A46D2F80C2403681A43234BC3F80C2451
:101420000EE007E01F49427911440A6803681A4335
:101430000A6005E0027911440A6803689A430A6069
:1014400070470021016001710C21417100218171FF
:1014500070471A49096841EA0001134AC2F810149A
:10146000704701460020134A12680A4201D0012049
:1014700000E0002070470F490860704701460020D7
:101480000022084B1B6803EA0102074BD3F814340F
:101490000B4202D00AB1012000E00020704705494C
:1014A000086070470004014000000140080401404A
:1014B000FFFF0F00140401400C0401401004014020
:1014C00010B50446FF48844208D10121C014FFF73B
:1014D00086FC0021E014FFF782FCC4E0B4F1804FE9
:1014E00008D101210846FFF787FC00210120FFF702
:1014F00083FCB8E0F448844208D101210220FFF7C0
:101500007BFC00210220FFF777FCACE0EF4884422F
:1015100008D101210420FFF76FFC00210420FFF710
:101520006BFCA0E0EA48844208D101210820FFF7C3
:1015300063FC00210820FFF75FFC94E0E54884424B
:1015400008D101211020FFF757FC00211020FFF7E0
:1015500053FC88E0E048844208D101212020FFF7B5
:101560004BFC00212020FFF747FC7CE0DB48844255
:1015700008D101214014FFF732FC00216014FFF76D
:101580002EFC70E0D648844209D10121C804FFF73F
:1015900026FC00214FF40020FFF721FC63E0D14836
:1015A000844209D101210805FFF719FC00214FF4FD
:1015B0008010FFF714FC56E0CB48844209D101218A
:1015C0004805FFF70CFC00214FF40010FFF707FC63
:1015D00049E0C648844208D101214020FFF70CFCB5
:1015E00000214020FFF708FC3DE0C148844208D1BB
:1015F00001218020FFF700FC00218020FFF7FCFB89
:1016000031E0BC48844208D101218015FFF7F4FB8A
:101610000021A015FFF7F0FB25E0B748844209D16F
:1016200001210804FFF7DBFB00214FF48030FFF7B6
:10163000D6FB18E0B148844209D101214804FFF7E4
:10164000CEFB00214FF40030FFF7C9FB0BE0AC48A4
:10165000844208D101218804FFF7C1FB00214FF427
:101660008020FFF7BCFB10BD00220288954B9842FA
:101670000ED09A4B98420BD0B0F1804F08D0924BCD
:10168000984205D0914B984202D0914B984204D198
:101690004FF68F731A404B881A438E4B984207D0EF
:1016A0008D4B984204D04FF6FF431A40CB881A4323
:1016B00002808B8883850B880385824B98420BD0F0
:1016C000864B984208D08C4B984205D08B4B984261
:1016D00002D08B4B984201D10B7A0386012383827F
:1016E000704770B5002400220023058C4FF6FE766B
:1016F00035400584028C8388048B4FF68F752C400F
:10170000B51E2C400D882C43751E2A400D892A4396
:101710004D882A436B4DA8420BD0704DA84208D08B
:10172000754DA84205D0754DA84202D0744DA8420F
:1017300013D14FF6F7752A404D892A434FF6FB75B2
:101740002A408D882A434FF6FF652B404FF6FF5500
:101750002B408D892B43CD892B4383800483CD88F7
:101760008586028470BD70B5002400220023058C9C
:101770004FF6EF7635400584028C8388048B48F65B
:10178000FF752C404FF6FF452C400D882D0644EA8E
:1017900015444FF6DF752A400D892D0542EA1542A2
:1017A0004D882D0542EA1542464DA84202D04B4DC8
:1017B000A8421BD14FF67F752A404D892D0542EA7C
:1017C00015424FF6BF752A408D882D0542EA154215
:1017D0004FF6FF352B404FF2FF752B408D89AD043E
:1017E00043EA1543CD89AD0443EA1543838004835E
:1017F000CD880587028470BD70B5002400220023C7
:10180000058C4FF6FF6635400584028C8388848BF7
:101810004FF68F752C404FF6FC752C400D882C43ED
:101820004FF6FF552A400D892D0642EA15424D8894
:101830002D0642EA1542234DA84202D0274DA84268
:101840001BD14FF2FF752A404D892D0642EA154201
:101850004FF6FF352A408D882D0642EA15424EF696
:10186000FF752B404DF6FF752B408D892D0543EA02
:101870001543CD892D0543EA154383808483CD88A4
:101880008587028470BD70B5002200230024058C7A
:101890004EF6FF7635400584038C8488828B48F6AB
:1018A000FF752A404FF6FF452A400D882D0642EA73
:1018B00015424DF6FF752B400D892D0743EA154360
:1018C0004D881FE0002C014000040040000800404B
:1018D000000C0040001000400014004000340140A3
:1018E000004C0140005001400054014000180040ED
:1018F000001C004000200040004001400044014026
:10190000004801402D0743EA1543F94DA84202D093
:10191000F84DA84206D14BF6FF752C408D89AD05D8
:1019200044EA154484808283CD88A0F84050038423
:1019300070BD828B4FF2FF331A408283828B0B067D
:1019400042EA134282837047F0B50C4615460022E6
:1019500000210026078C4EF6FF7C07EA0C0707845F
:10196000828B018C27073E0C40F6FF473A402F063A
:1019700042EA17421F0742EA1742DD4FB8420ED033
:10198000DC4FB8420BD0B0F1804F08D0DA4FB842EC
:1019900005D0DA4FB84202D0D94FB84206D14DF641
:1019A000FF77394046F48057394305E047F6FF5743
:1019B000394044F48057394382830184F0BD828BDF
:1019C0004FF6F3731A408283828B0A4382837047F7
:1019D000F0B50C461546002200210026078C4FF674
:1019E000FF6C07EA0C070784828B018C27063E0CEC
:1019F0004FF60C773A401F0545EA17473A43BC4F6C
:101A0000B8420ED0BB4FB8420BD0B0F1804F08D0D7
:101A1000B94FB84205D0B94FB84202D0B84FB8421A
:101A200006D14FF6FF57394046F48077394305E039
:101A30004FF2FF57394044F4807739438283018461
:101A4000F0BD028B4FF2FF331A400283028B0B066C
:101A500042EA134202837047F0B50C461546002255
:101A600000210026078C4FF6EF7C07EA0C0707845D
:101A7000028B018C27053E0C40F6FF473A401F07BA
:101A800042EA17422F0642EA1742994FB8420ED057
:101A9000984FB8420BD0B0F1804F08D0964FB84263
:101AA00005D0964FB84202D0954FB84206D14FF6B6
:101AB000DF77394046F01007394305E04FF65F778E
:101AC000394044F01007394302830184F0BD028B92
:101AD0004FF6F3731A400283028B0A430283704766
:101AE000F0B50C46154600220021068C4FF6FE7715
:101AF0003E400684028B018C4FF60C7632401E0568
:101B000045EA164632437A4EB0420ED0794EB04284
:101B10000BD0B0F1804F08D0774EB04205D0774E51
:101B2000B04202D0764EB04206D14FF6FD7631403B
:101B300044F00106314305E04FF6F576314044F0BC
:101B40000106314302830184F0BD70B505460C46A1
:101B5000674885420ED0674885420BD0B5F1804F6B
:101B600008D06548854205D06448854202D0644863
:101B7000854200D100E000BF208850B92389A288A7
:101B800061882846FFF7ACFFE1882846FFF79FFFF2
:101B900025E0208804280AD12389A2886188284664
:101BA000FFF75AFFE1882846FFF74BFF17E0208830
:101BB00008280AD12389A28861882846FFF708FFF0
:101BC000E1882846FFF7FBFE09E02389A2886188A7
:101BD0002846FFF7B9FEE1882846FFF7AAFE70BD48
:101BE0002DE9F04105460C4600260127608808B91A
:101BF000022600E00026A088012801D1022700E08B
:101C000001272088A0B92389A28861882846FFF788
:101C100067FFE1882846FFF75AFF23893A46314695
:101C20002846FFF719FFE1882846FFF70AFF13E06F
:101C30002389A28861882846FFF70EFFE18828469D
:101C4000FFF7FFFE23893A4631462846FFF748FF53
:101C5000E1882846FFF73BFFBDE8F0810A884B8802
:101C60001A438B881A43CB881A430B891A434B8932
:101C70001A438B891A43A0F8442070474FF6FF712E
:101C8000818000210180C180418001727047002164
:101C9000018041808180C180018141818181C18138
:101CA0007047002101804180012181800021C18095
:101CB000018170470021018041808180C1800181C4
:101CC00041818181704721B1028842F00102028086
:101CD00004E002884FF6FE731A400280704789B113
:101CE000B0F8442042F40042A0F8442010E0000084
:101CF000002C014000340140000400400008004076
:101D0000000C0040B0F84420C2F30E02A0F84420BA
:101D1000704710B51AB183890B43838104E083892E
:101D2000CC43A4B22340838110BD8182704741EA35
:101D30000203A0F84830704710B51AB183890B43ED
:101D4000838104E08389CC43A4B22340838110BD06
:101D500001894FF6F8721140018170470A4600214F
:101D600001894FF68F73194011430181704730B5D7
:101D700004460D4629462046FFF7F0FF208940F033
:101D80000700208130BD2DE9F04104460D4616467E
:101D90001F46602D06D13B46012231462046FFF703
:101DA0005BFE05E03B46012231462046FFF798FEE8
:101DB00029462046FFF7D2FF208940F00700208106
:101DC000BDE8F08130B50C4600210189C9B21D067D
:101DD00042EA154525432943018130BD2DE9F041F3
:101DE00005460E4617469846002443463A46314675
:101DF0002846FFF7E7FF2C894FF6F8710C4044F0B6
:101E000007044FF68F710C4044F070042C81BDE83C
:101E1000F081F0B504460D4616461F463B46324655
:101E200029462046FFF7CEFF208940F480402081DC
:101E3000F0BD0185828270470A46002101884FF675
:101E40008F731940114301807047F0B50C46154659
:101E50001E460021002200230189028B038C4FF6CD
:101E6000F877394021434FF6FC473A4040F20117DA
:101E70003A434FF6DD773B40370545EA17473B438A
:101E8000018102830384F0BD0A460021018B4FF6D5
:101E90008F7319401143018370470A460021018B5B
:101EA00048F6FF731940130641EA13410183704756
:101EB0000A460021818B4FF68F73194011438183AD
:101EC00070470A460021818B48F6FF7319401306BC
:101ED00041EA13418183704721B1028842F08002B8
:101EE000028004E002884FF67F731A400280704738
:101EF00021B1828842F00402828004E082884FF699
:101F0000FB731A408280704721B1828842F0080238
:101F1000828004E082884FF6F7731A40828070470F
:101F200021B1828842F00102828004E082884FF66B
:101F3000FE731A40828070470A460021018B4FF6DB
:101F4000F77319401143018370470A460021018B42
:101F50004FF2FF731940130641EA134101837047A2
:101F60000A460021818B4FF6F77319401143818394
:101F700070470A460021818B4FF2FF731940130608
:101F800041EA1341818370470A460021018B4FF6D5
:101F9000FB7319401143018370470A460021018BEE
:101FA0004FF6FF331940130641EA1341018370478E
:101FB0000A460021818B4FF6FB7319401143818340
:101FC00070470A460021818B4FF6FF3319401306F4
:101FD00041EA1341818370470A460021018B4FF685
:101FE0007F7319401143018370470A460021018B1A
:101FF000C1F30E01130641EA1341018370470A46FB
:102000000021818B4FF67F73194011438183704704
:102010000A460021818BC1F30E01130641EA1341E8
:10202000818370470A460021018C4FF6FD731940E9
:102030001143018470470A460021018C4FF6F77363
:1020400019401143018470470A460021018C4FF664
:10205000DF731940130541EA1341018470470A46B2
:102060000021018C4FF67F731940130541EA13419B
:10207000018470470A460021018C4FF6FF53194036
:10208000130641EA1341018470470A460021018C7E
:102090004FF2FF731940130641EA13410184704760
:1020A0000A460021018C4DF6FF731940130741EADF
:1020B00013410184704730B5002301248C40A3B242
:1020C000048CDD43ADB22C400484048C02FA01F58B
:1020D000ADB22C43048430BD30B5002304248C40C1
:1020E000A3B2048CDD43ADB22C400484048C02FA0C
:1020F00001F5ADB22C43048430BD70B50346002019
:1021000000241846183001258D40ACB21D8CE643E2
:10211000B6B235401D8409B1082909D100EB610030
:10212000056825F0700505600568154305600CE03D
:102130000D1FADB200EB6500056825F4E0450560B4
:102140000568160645EA1645056070BD21B102888E
:1021500042F00202028004E002884FF6FD731A404A
:102160000280704721B1028842F00402028004E03C
:1021700002884FF6FB731A400280704721B18288B3
:1021800042F08002828004E082884FF67F731A401A
:102190008280704702884FF6F7731A4002800288E7
:1021A0000A430280704782884FF68F731A408280FC
:1021B00082880A438280704702894FF6F8731A407A
:1021C000028102890A430281704702894FF67F73B8
:1021D0001A40028102890A43028170478184704754
:1021E0008185704781867047018770478187704776
:1021F000A0F84010704702884FF6FF431A40028053
:1022000002880A43028070470146888E7047014663
:10221000088F70470146888F70470146B1F840002B
:1022200070470146888C70470146088D704702460A
:102230000020138A0B4201D0012000E000207047EB
:10224000CA430282704730B50246002000230024B2
:10225000158A05EA0103958905EA010413B10CB159
:10226000012000E0002030BDCA4302827047000018
:1022700010B50446F848844208D101214015FEF704
:10228000AEFD00216015FEF7AAFD17E0F348844279
:1022900008D101210015FEF7A2FD00212015FEF74F
:1022A0009EFD0BE0EE48844208D10121C803FEF7F1
:1022B00096FD00214FF40040FEF791FD10BD30B5B2
:1022C0000246002000235068E64C20400D790C683F
:1022D00044EA0524204350609068E34C2040D1E953
:1022E00002542C434D7944EA450420439060D06A5F
:1022F00020F470000C7C641EE4B2234340EA0350D7
:10230000D06230BD00210160017141718160C16006
:1023100001210174704721B1826842F0010282609C
:1023200003E0826822F001028260704721B1826876
:1023300042F48072826003E0826822F480728260DC
:10234000704710B50023CBB21AB144681C434460F7
:1023500002E044689C43446010BD816841F008017C
:1023600081607047014600208A6812F0080F01D092
:10237000012000E000207047816841F00401816085
:102380007047014600208A6812F0040F01D0012036
:1023900000E00020704721B1826842F4A002826010
:1023A00003E0826822F4A0028260704701460020A8
:1023B0008A6812F4800F01D0012000E000207047ED
:1023C00010B50A4600210023416821F46041531EE4
:1023D00041EA4331416010BD21B1426842F40062DC
:1023E000426003E0426822F4006242607047F0B548
:1023F00004460D4600200021092D11DDE068A5F1FD
:102400000A0606EB4607072606FA07F18843A5F1F8
:102410000A0606EB460603FA06F10843E0600CE004
:10242000206905EB4507072606FA07F1884305EB07
:10243000450603FA06F108432061072A0FDA606BAC
:10244000561E06EB86071F2606FA07F18843561E1E
:1024500006EB860605FA06F10843606322E00D2AC2
:102460000FDA206BD61F06EB86071F2606FA07F148
:102470008843D61F06EB860605FA06F1084320635B
:1024800010E0E06AA2F10D0606EB86071F2606FAA9
:1024900007F18843A2F10D0606EB860605FA06F160
:1024A0000843E062F0BD21B1826842F4801282608C
:1024B00003E0826822F48012826070470146C86C93
:1024C00080B2704769480068704721B1426842F4A1
:1024D0008062426003E0426822F48062426070479A
:1024E00021B1426842F48052426003E0426822F423
:1024F0008052426070470A460021816821F4E04121
:1025000011438160704721B1826842F400428260C9
:1025100003E0826822F400428260704721B1826841
:1025200042F40212826003E0826822F402128260A6
:102530007047014600208A6812F4001F01D0012074
:1025400000E000207047F0B5044615460020002248
:102550000026092911DDE068A1F10A0707EB470C05
:10256000072707FA0CF29043A1F10A0707EB470788
:1025700003FA07F21043E0600CE0206901EB410C24
:10258000072707FA0CF2904301EB410703FA07F221
:1025900010432061A06BC0F30156EF1C06F1010C43
:1025A000A7EB0C0707EB870C1F2707FA0CF29043E9
:1025B000EF1C06F1010CA7EB0C0707EB870701FAEC
:1025C00007F21043A063F0BD10B50A4600210023B6
:1025D000816B21F44011531E41EA0351816310BD08
:1025E00010B5002303460B441A6010BD02460023B9
:1025F000134601F128000344186880B270470A4668
:10260000002141681A4B19401143416070474162F3
:10261000826270470A460021416821F01F01114380
:102620004160704738B11349096841F40001124A0A
:10263000C2F8081406E00F49096821F400010E4AA7
:10264000C2F8081470470246002013680B4201D0FC
:10265000012000E0002070470024014000280140D4
:10266000003C0140FFFEF0FFFDF7F1FF4C2401406C
:10267000FFFD3FFF0824014000200140CA430260E3
:10268000704770B502460020002300240B125568E5
:10269000CEB205EA060415681D4202D00CB1012035
:1026A00000E0002070BD00220A12D343036070478F
:1026B00039B1554A128842EA0002544BA3F8002867
:1026C00009E0514A12886FEA00039BB202EA030252
:1026D0004E4BA3F8002870474D48008840F010008A
:1026E0004A49A1F804087047494800884FF6EF713D
:1026F00000EA01004549A1F8040870470021454857
:1027000001884248B0F8180841EA0040704700B517
:102710000246FFF7E1FF100C3F4908803B49A1F852
:102720001C28FFF7E1FF00BD00B50246FFF7D4FF0C
:10273000C2F30340394908803449A1F80C28FFF757
:10274000D3FF00BD00B50246FFF7C6FF100C3449A9
:1027500008802E49A1F82428FFF7C6FF00BD0020FD
:10276000304909884FEA01714FEA11302749B1F821
:10277000141841EA0000704700BF2548008810F097
:10278000200FFAD07047224800884FF6F77100EA10
:1027900001001E49A1F8040800BF1D48008810F080
:1027A000080FFAD0704701460020194A12880A42E1
:1027B00001D0012000E000207047154909886FEA28
:1027C000000292B201EA0201104AA2F8041870470E
:1027D000014600200E4A128802EA0102D0B20B4ADA
:1027E000B2F800280A4202D008B1012000E000201F
:1027F0007047074909886FEA000292B201EA0201B4
:10280000024AA2F804187047002800400020004047
:10281000042800401C2800401828004008280040D8
:10282000202800401028004030B943F2DB014FF06F
:10283000204242F8201005E043F2D2014FF020423E
:1028400042F820106FF07042411C4FF0204343F8D3
:10285000212011461A4602EB8002C2F8041170478B
:1028600010280AD118214FF02042116640215166EC
:102870004FF0FC319166D16610E01821F84A1160E2
:102880004FF040014FF02042C2F884104FF0FC316D
:10289000F44A11604FF02042C2F88C1070471820A3
:1028A000F14908604FF000004FF02041C1F8A4004A
:1028B0004FF0FC30ED49086001F10401086001F1BE
:1028C000040108607047D0E901121143C268114346
:1028D000026911434269114382691143C26911437C
:1028E000026A1143426A1143826A1143C26A114368
:1028F000026B11434FF02043026843F822108168B5
:10290000082908D11A46016852F8211041F0400107
:10291000026843F82210416B0968426B526841EA31
:102920000211426B926841EA0221426BD26841EA8D
:102930000241426B126941EA0251426B526941EA1B
:102940000261426B926911430268521C4FF02043AE
:1029500043F82210C16AB1F5804F1AD1816B096822
:10296000826B526841EA0211826B926841EA02214D
:10297000826B126941EA0251826B526941EA02613B
:10298000826B92691143026803EB8202C2F8041160
:1029900008E06FF070414FF02043026803EB8202C1
:1029A000C2F80411704730B50021002200234468AA
:1029B00044F0080485682C43C5682C4305692C4302
:1029C000456944EA4524856944EA4531C469246877
:1029D000C5696D6844EA0524C569AD6844EA0544E3
:1029E000C569ED6844EA0562046A2468056A6D6891
:1029F00044EA0524056AAD6844EA0544056AED68C1
:102A000044EA05630468102C05D14FF02044216688
:102A1000A266E36607E0924C21604FF02044C4F8C0
:102A20008820934C236030BD016841F0100142685A
:102A300041EA4221826841EA42318B4A1160C16811
:102A40000968C268526841EA0221C268926841EA94
:102A50000241C268D26841EA0261844A1160016998
:102A600009680269526841EA02210269926841EAF2
:102A700002410269D26841EA02617E4A11604169FD
:102A800009684269526841EA02214269926841EA52
:102A900002414269D26841EA02614FF02042C2F825
:102AA000B010704700210160022141600021816067
:102AB000C160016141618161C16101624FF4805176
:102AC0004162490081620021C16201630F21426BB2
:102AD0001160426B5160FF21426B91600F21426B8C
:102AE000D160426B1161426B51610021426B916177
:102AF0000F21826B1160826B5160FF21826B9160AC
:102B00000F21826BD160826B1161826B5161002158
:102B1000826B9161704710210160002141608160EA
:102B2000C160016141618161FC21C2691160C269BA
:102B30005160C2699160C269D160026A1160026A23
:102B40005160026A9160026AD160704700210160A1
:102B500041608160FC21C2681160C2685160C26836
:102B60009160C268D16002691160026951600269B6
:102B700091600269D16042691160426951604269A5
:102B800091604269D160704751B14FF0204252F8D4
:102B9000202042F001024FF0204343F8202009E0BA
:102BA0004FF0204252F82020334B1A404FF0204380
:102BB00043F82020704799B1102808D14FF02042E7
:102BC000126E42F004024FF020431A661DE0244AC0
:102BD000126842F004024FF02043C3F8802014E052
:102BE000102809D14FF02042126E234BDB1E1A40F1
:102BF0004FF020431A6608E0194A12681F4B02EA98
:102C000003024FF02043C3F88020704740B11649BB
:102C1000096841F004014FF02042C2F8A01008E01A
:102C200011490968154A01EA02014FF02042C2F831
:102C3000A010704799B1102808D14FF02042126EB1
:102C400042F040024FF020431A662DE0044A126819
:102C500042F040024FF02043C3F8802024E00FE010
:102C6000800000A0880000A0A00000A0A80000A094
:102C70008C0000A0AC0000A0FEFF0F00FBFF0F00C7
:102C8000102808D14FF02042126E684B1A404FF0C6
:102C900020431A6608E0664A1268644B02EA03029F
:102CA0004FF02043C3F880207047014600201029D0
:102CB00003D14FF02042506F01E05E4A1068704728
:102CC00010B5F2B1102807D14FF020435B6E0B43D3
:102CD0004FF02044636632E0B0F5807F08D1564B58
:102CE0001B6843EA01034FF02044C4F8843026E017
:102CF000524B1B6843EA01034FF02044C4F8A43050
:102D00001DE0102807D14FF020435B6E8B434FF03E
:102D10002044636613E0B0F5807F08D1464B1B6802
:102D200023EA01034FF02044C4F8843007E0434B0A
:102D30001B6823EA01034FF02044C4F8A43010BDFF
:102D400010B5024600200023102A03D14FF0204482
:102D5000636E07E0B2F5807F02D1374C236801E053
:102D6000364C23680B4201D0012000E0002010BD4A
:102D7000102807D14FF02042526E8A434FF0204373
:102D80005A6613E0B0F5807F08D12B4A126822EA18
:102D900001024FF02043C3F8842007E0274A12685D
:102DA00022EA01024FF02043C3F8A420704770B517
:102DB00002460020002300240025102A03D14FF0F2
:102DC0002046736E07E0B2F5807F02D11A4E336859
:102DD00001E01A4E336803EA010403EAD10514B195
:102DE0000DB1012000E0002070BD102808D14FF087
:102DF0002042526E22EAD1024FF020435A6613E07D
:102E0000B0F5807F08D10C4A126822EAD1024FF057
:102E10002043C3F8842007E0084A126822EAD1025E
:102E20004FF02043C3F8A42070470000BFFF0F00FD
:102E3000800000A0940000A0840000A0A40000A0D6
:102E400008B5FDF7FFFB01211020FDF7AEFF0320C1
:102E50008DF802000120ADF8000010208DF803006D
:102E600069460A48FDF7EEFC01210420FDF79DFFAD
:102E700003208DF802000120ADF8000048208DF8F5
:102E8000030069460248FDF7DDFC08BD0010014063
:102E900000080140014601EBC1024FF0E0235A61F6
:102EA00001221A6100229A6100BF4FF0E0221069EE
:102EB00010F0010F02D010F4803FF6D000224FF046
:102EC000E0231A619A617047014642F228324A4370
:102ED0004FF0E0235A6101221A6100229A6100BF7B
:102EE0004FF0E022106910F0010F02D010F4803F83
:102EF000F6D000224FF0E0231A619A61704700007B
:102F000070B504460D46E1B23048FEF7F8F800BF50
:102F100080212E48FEF761F90028F9D0204670BDC7
:102F200000B587B0012144F20500FDF73EFF4FF4E4
:102F30000070ADF8180003208DF81A0018208DF8E5
:102F40001B0006A92248FDF77DFC4FF48060ADF818
:102F5000180004208DF81B0006A91D48FDF772FC1F
:102F60004FF4C060FEF792F925208DF81400002080
:102F70008DF8150001208DF816008DF8170005A8B2
:102F8000FEF789F94FF4165001900020ADF80800C3
:102F9000ADF80A00ADF80C00ADF810000C20ADF84B
:102FA0000E0001A90948FDF7AEFF01210748FEF711
:102FB00036F8012240F225510448FEF73CF8402142
:102FC0000248FEF717F907B000BD000000380140C5
:102FD0000008014000B587B0012140F20520FDF74F
:102FE000E4FE4FF40040FDF748FE2248FFF740F9A9
:102FF0000220ADF8180000208DF81B0003208DF88A
:103000001A0006A91C48FDF71DFC002001908DF850
:1030100008008DF809004FF4602003900020049010
:1030200001208DF8140001A91248FFF748F9072381
:10303000012211460F48FFF7DAF901210D48FFF789
:103040006AF90C48FFF789F900BF0A48FFF78AF9C7
:103050000028FAD10748FFF78FF900BF0548FFF7AE
:1030600090F90028FAD101210248FFF794F907B03E
:1030700000BD0000002401400008014008B5012106
:103080004FF4B070FDF791FE03208DF8020041F27D
:103090000100ADF8000018208DF803006946CA4809
:1030A000FDF7D0FB4FF63370ADF800006946C74816
:1030B000FDF7C8FB4FF68070ADF800006946C448C4
:1030C000FDF7C0FB08BD00B597B0022001900020BD
:1030D00002900520039000200690049001200590A6
:1030E000000707900620089000200A9010200B90FF
:1030F00000021190800013900020099001A8159003
:10310000169001210802FDF743FE08A8FFF7DBFB3C
:1031100001210620FFF738FD17B000BDAD4908803A
:103120007047AD490880704710B5FFF7A7FFFFF75C
:10313000CAFF4FF4FA7401E0601E84B2002CFBDC7D
:103140001120FFF7EBFF4FF4FA7401E0601E84B228
:10315000002CFBDCB920FFF7E1FFFF20FFF7E1FFC8
:103160008320FFF7DEFF5720FFF7DBFF4FF4FA74F1
:1031700001E0601E84B2002CFBDCB120FFF7CEFF23
:103180000020FFF7CEFF1420FFF7CBFF1C20FFF736
:10319000C8FF1C20FFF7C5FFC320FFF7C2FF442074
:1031A000FFF7BFFF7020FFF7BCFF4FF4FA7401E098
:1031B000601E84B2002CFBDCB420FFF7AFFF22209E
:1031C000FFF7AFFF4020FFF7ACFF0020FFF7A9FF9C
:1031D0002A20FFF7A6FF2A20FFF7A3FF2020FFF7F2
:1031E000A0FF9120FFF79DFF4FF4FA7401E0601EED
:1031F00084B2002CFBDC3620FFF790FF4C20FFF759
:1032000090FFC020FFF78AFF5020FFF78AFF502071
:10321000FFF787FF0120FFF784FF3C20FFF781FFC6
:10322000C820FFF77EFF0820FFF77BFF0020FFF795
:1032300078FF0820FFF775FF0420FFF772FF4FF4B7
:10324000FA7401E0601E84B2002CFBDC4FF4FA74C7
:1032500001E0601E84B2002CFBDCE020FFF75EFF83
:103260000B20FFF75EFF1120FFF75BFF1E20FFF72B
:1032700058FF3020FFF755FF3A20FFF752FF432059
:10328000FFF74FFF4E20FFF74CFF5620FFF749FF97
:103290004520FFF746FF3F20FFF743FF3920FFF7A8
:1032A00040FF3220FFF73DFF2F20FFF73AFF2A2093
:1032B000FFF737FF2920FFF734FF2120FFF731FF09
:1032C0000B20FFF72EFF1120FFF72BFF1E20FFF72B
:1032D00028FF3020FFF725FF3A20FFF722FF432089
:1032E000FFF71FFF4E20FFF71CFF5620FFF719FFC7
:1032F0004520FFF716FF3F20FFF713FF3920FFF7A8
:1033000010FF3220FFF70DFF2F20FFF70AFF2A20C2
:10331000FFF707FF2920FFF704FF2120FFF701FF38
:103320000020FFF7FEFE0120FFF7FBFE2120FFF744
:10333000F5FE3A20FFF7F2FE0520FFF7F2FE292006
:10334000FFF7ECFE10BD30B504460D462A20FFF70E
:10335000E5FE2012FFF7E5FEE0B2FFF7E2FE1012F5
:10336000FFF7DFFED0B2FFF7DCFE2B20FFF7D6FE23
:103370002812FFF7D6FEE8B2FFF7D3FE1812FFF7C8
:10338000D0FED8B2FFF7CDFE2C20FFF7C7FE30BD30
:1033900070B5064640F2DF1340F23F1200210846A6
:1033A000FFF7D1FF00240BE0002504E03046FFF7D3
:1033B000B8FE681C85B2B5F5F07FF7DB601C84B2FF
:1033C000B4F5A07FF0DB70BD002001400014014087
:1033D00000180140FE07006C0008006C70B5044640
:1033E0000D4616462B46224629462046FFF7ABFFE0
:1033F0003046FFF796FE70BD2DE9F04704460D46B6
:1034000016461F46DDF82080B44201DCBD4201DDD6
:10341000BDE8F0873B46324629462046FFF793FF3A
:10342000301B401C84B2781B401C85B20BE0A946BF
:1034300002E04046FFF775FE5FEA0900A9F10101CD
:103440001FFA81F9F5D12000A4F101018CB2EED16F
:1034500000BFDDE72DE9F04104460D4617466A1E20
:1034600091B2621E90B26A1C93B2621C92B2FFF7D4
:103470006AFF002604E03846FFF753FE701CC6B210
:10348000092EF8DB211F88B22B46211D8AB229465E
:10349000FFF759FF002604E03846FFF742FE701C94
:1034A000C6B2092EF8DB281F81B2281D83B222463E
:1034B0002046FFF748FF002604E03846FFF731FEBC
:1034C000701CC6B2092EF8DBBDE8F0812DE9FF5F64
:1034D00004460E46154698463BE02878203800F012
:1034E000FF0A06F10F0083B2E01D82B2314620468A
:1034F000FFF729FF00271FE0184800EB0A1010F81B
:1035000007B04FF0000912E00BF08000802803D1D3
:103510004046FFF706FE02E00E98FFF702FE4FEA74
:103520004B404FEA104B09F1010000F0FF09B9F1DF
:10353000080FE9DB781CC7B2102FDDDB6D1C04F12E
:10354000080084B2B4F59C7F03DB002406F1100070
:1035500086B228780028C0D1BDE8FF9FA23D0008B0
:103560001FB5012140F20110FDF71FFC4FF4004090
:10357000ADF80C0048208DF80F0003A92048FDF796
:1035800061F94FF40040FDF78AFF0F210620FDF797
:103590006DFA4FF40040019000208DF808000C20D7
:1035A0008DF8090001208DF80A0001A8FDF7F9FE49
:1035B0004FF4C060FDF76AFE28208DF8000000205F
:1035C0008DF8010001208DF802008DF80300684697
:1035D000FDF761FE1FBD10B5002408E0601CC4B2F9
:1035E0001420FFF757FCFA2C01DB204610BD4FF4E6
:1035F00000410348FDF7B7F90128EFD02046F5E771
:1036000000200140704770477047754600F028F869
:10361000AE4605006946534620F00700854618B0BF
:1036200020B5FDF79DF8BDE820404FF000064FF0B3
:1036300000074FF000084FF0000B21F00701AC46E7
:10364000ACE8C009ACE8C009ACE8C009ACE8C00906
:103650008D4670470446AFF300802046FCF7B1FD6D
:10366000004870474800002001487047704700BF7D
:103670004C00002001491820ABBEFEE726000200E6
:103680007047000021F00042A2F16052B2F5801FA5
:1036900001F0004328BFD2F17F6C0BD95FEA001C18
:1036A00043EAC20242EB507018BF704728BF20F0B7
:1036B00001007047B2F5801FBCBF184670474FEA43
:1036C000410C1CF5001F02D2084600F065BB70B526
:1036D00000F020FA00000089FFF7F6BF4FF000402D
:1036E000A0F58000704700002DE9C04130B4DFF83C
:1036F000A0C23CEA111418BF3CEA131400F0EC809D
:1037000081EA03051CEA111444EAD57418BF1CEAC7
:10371000131500F0C780A4EB05044FF0004545EAFF
:10372000C12145EAC32341EA505143EA525304F10F
:103730007F74994204F500344FEAC0204FEAC22258
:1037400008BF904200F09C804FEA13650FF24016CC
:10375000765D4FEA134506FB05F7C7F1807706FB58
:1037600007F74FEAD737A7FB03687642C8F58038DA
:10377000A7FB06CE38BFA8F1010807FB08E64FF00B
:10378000000EA6FB028CE6FB03CEDCF1000CCEF1B2
:10379000004E38BFAEF1010EA6FB0C584FF00007EB
:1037A0004FF00005E6FB0E87A1FB08C6A0FB07CE85
:1037B00016EB0E0645F10005E1FB076515F1E04E3D
:1037C0007EBFA4F580345FEA46066D4116F180079E
:1037D00045F100054FEA17274FEA066647EA0567F5
:1037E000A6F1DE46B6F1805F4FEA15251FD93846AF
:1037F00024F0010C05EBC471BCF1FE6F01EB0C1160
:1038000002D8F0BCBDE8008124425CBF01F5801EF7
:103810009EEAC47F02D4F0BCBDE80081244238D4C3
:10382000F0BCA1F1C041BDE8004100F0C1B94FEAD0
:10383000D22242EA43524FEAD323A7FB02864FEA41
:10384000D02040EA415007FB03661EEA0E0F4FEA04
:10385000D12105FB026658BFA6EB0056B6EB005619
:103860004FEA520E4EEAC37E18EB0E0E56EB530E85
:10387000BDD518EB02085E417F1C55F10005B6E787
:103880004FF480154FF000074FF000064FF000088E
:10389000ADE7F0BC4FF0000001F1C04101F0004184
:1038A000BDE8008111EA0C1F0CEA131500D00CE0F2
:1038B00013EA0C1F00F025804FF00000F0BC81EAF5
:1038C000030101F00041BDE80081F0BCBDE800410A
:1038D00081EA030100F06CB9F0BCBDE8004170B5AD
:1038E00000F018F9097EFC3E00F007B881EA0301F8
:1038F0004FF0000001F00041704781EA030100F041
:1039000057B9F0BCBDE800414FF0000021497047B5
:10391000FFFDFBF9F7F5F4F2F0EEEDEBE9E8E6E494
:10392000E3E1E0DEDDDBDAD8D7D5D4D3D1D0CFCD1B
:10393000CCCBCAC8C7C6C5C4C2C1C0BFBEBDBCBB54
:10394000BAB9B8B7B6B5B4B3B2B1B0AFAEADACAB4F
:10395000AAA9A8A8A7A6A5A4A3A3A2A1A09F9F9E29
:103960009D9C9C9B9A9999989797969595949393DB
:10397000929191908F8F8E8E8D8C8C8B8B8A898972
:1039800088888787868585848483838282818180F5
:103990000000FF070000F87FB0FA80F310FA03F18F
:1039A0000AD0C3F11D0303F580634FEA41504FEA8B
:1039B000035202EBD12170474FF000007047000026
:1039C000DFF848C170B51CEA111E1EBF1CEA1315B2
:1039D0009EEA0C0F95EA0C0F00F06F8081EA030459
:1039E00023EA4C134EEAD47E21EA4C1141F48011B3
:1039F00043F48013AE44A1FB024CA0FB0365AEF17F
:103A00007F7E361955EB0C05A1FB034C4CF10003EE
:103A1000A0FB021C16EB0C06654153F100030942A2
:103A200018BF46F0010613F4007F0BD14FEA0331B3
:103A30004FEA0530340341EA155140EA16506FF061
:103A400003020AE04FEAC3214FEAC520F40241EA2B
:103A5000555140EA56506FF0020202EB2E4201EB44
:103A6000025585EACE710AD05FEA440C18BF24F0F3
:103A7000004450F1000041F1000120EAD47040F20E
:103A8000FE7C624500D270BDA84214BF4FF0804456
:103A90004FF04044002E08BF0024BEF1806FA8BF45
:103AA000A1F1C041BDE8704080F282804FF000007B
:103AB00001F1C04101F0004170479EEA0C0F0CEA91
:103AC000131518BF95EA0C0F06D04FF0000081EADD
:103AD000030E0EF0004170BD00F01CF88900013E9D
:103AE00000F007B800F009B84FEA430C5FEA5C5CED
:103AF00008D081EA030100F05BB84FEA410C5FEAAD
:103B00005C5CF6D14FF00000014970470000FF07F0
:103B10000000F87F0EF1020E2EF0030E5EF8046B2B
:103B2000364205D4012A43EB030515F5001F12D8D0
:103B3000012841EB010C1CF5001F0CD80ED14FEAF7
:103B4000D17C15F5001F0CEB4C0C0CF1020C08BFDE
:103B50004CEBD37C04E04FF0080C01E04FEAD37C3F
:103B60000CEB4C0526FA05F606F00706B6F1040C38
:103B700006D20EEB860CBDE870404CF0010C60479D
:103B8000DFE80CF0090B02024FF000414FF000009B
:103B9000A1F5002170BD19461046012851EB010422
:103BA00018BFD4F5001484BF002001F0004170BD9F
:103BB0000808A0F500114FEA31017047C10DD1F19D
:103BC0009E0206DB4FEA002343F0004323FA02F093
:103BD0007047004207D54FEA4001B1F1FE4F02D2D3
:103BE0004FF00000704710B500F089F8499224802A
:103BF000002070476FEA2000704700004FF47F0CF0
:103C00001CEAD0121EBF1CEAD11392EA0C0F93EAF1
:103C10000C0F00F0478090EA010F48BF42F4807219
:103C20004FF0004C4CEA00204CEA012102EB030269
:103C3000A0FB0113A2F50002002918BF43F0010305
:103C40005B0028BF4FEA330342EB22425FEA132CAA
:103C50004CEBC2502EBFBCEB436FB2F57C0F7047EC
:103C60004FEA036CBCF1004F08BF20F00100B2F531
:103C70007C0F38BF70470BD582F0FF0212F5803FF2
:103C8000C8BF704700F1C040D8BF00F00040704787
:103C900000F5000C5FEA4C0C48BF7047B0F1C04023
:103CA00000F07AB890EA010F0CEAD11348BF42F451
:103CB0008072624538BF634504D280EA010000F09B
:103CC0000040704710B500F01AF800BF8900013EAF
:103CD00000F007B800F009B85FEA410C5FEA1C6C1D
:103CE00008D080EA010000F057B85FEA400C5FEAB4
:103CF0001C6CF6D14FF00040A0F5800070470EF12B
:103D0000020E2EF0030E5EF8044B244204D44FEA58
:103D10004102B2F17F4F11D84FEA4003B3F17F4F18
:103D20000CD80ED14FEAD07CB2F17F4F0CEB4C0C8B
:103D30000CF1020C08BF4CEBD17C04E04FF0080CF6
:103D400001E04FEAD17C0CEB4C0324FA03F404F0BD
:103D50000704B4F1040C06D20EEB840CBDE810404D
:103D60004CF0010C6047DFE80CF0070802024FF04E
:103D70000040A0F5800010BD0846420018BFD2F1F7
:103D8000807288BF00F0004010BD10B5FFF76CFCDA
:103D90004FF00001016010BDFF2141EAD050C00585
:103DA000704700000000000000000000000000005C
:103DB0000000000000101010101010100000181863
:103DC000000000123624480000000000000000003F
:103DD0000000000000242424FE484848FE484848CB
:103DE0000000000010385454503018141454543843
:103DF000101000000044A4A8A8A8541A2A2A2A4493
:103E0000000000000030484848506EA4948889762D
:103E1000000000606020C000000000000000000002
:103E20000000000204080810101010101008080408
:103E30000200004020101008080808080810102090
:103E40004000000000001010D63838D610100000D6
:103E500000000000000010101010FE1010101000E4
:103E60000000000000000000000000000000606092
:103E700020C000000000000000007F0000000000E3
:103E80000000000000000000000000000000606072
:103E90000000000001020204040808101020204065
:103EA000400000000018244242424242424224188C
:103EB0000000000000107010101010101010107C86
:103EC00000000000003C4242420404081020427EF0
:103ED00000000000003C4242041804020242443840
:103EE0000000000000040C14242444447E04041E3A
:103EF00000000000007E4040405864020242443806
:103F000000000000001C2440405864424242241833
:103F100000000000007E444408081010101010102B
:103F200000000000003C4242422418244242423C2D
:103F300000000000001824424242261A02022438DF
:103F40000000000000000000181800000000181811
:103F50000000000000000000001000000000001041
:103F60001020000000020408102040201008040265
:103F70000000000000000000FE000000FE00000045
:103F80000000000000402010080402040810204037
:103F900000000000003C42426202040808001818B9
:103FA000000000000038445AAAAAAAAAB442443821
:103FB00000000000001010182828243C444242E76A
:103FC0000000000000F8444444784442424244F86F
:103FD00000000000003E42428080808080424438E1
:103FE0000000000000F8444242424242424244F88B
:103FF0000000000000FC424848784848404242FC2B
:104000000000000000FC424848784848404040E03A
:1040100000000000003C44448080808E844444388A
:104020000000000000E7424242427E42424242E734
:1040300000000000007C1010101010101010107CF8
:1040400000000000003E08080808080808080808E2
:1040500088F0000000EE444850705048484444EE58
:104060000000000000E0404040404040404042FE30
:104070000000000000EE6C6C6C6C5454545454D628
:104080000000000000C7626252524A4A4A4646E2B5
:10409000000000000038448282828282828244389A
:1040A0000000000000FC424242427C40404040E0B0
:1040B000000000000038448282828282B2CA4C38FA
:1040C0000600000000FC4242427C4848444442E36F
:1040D00000000000003E4242402018040242427CA0
:1040E0000000000000FE9210101010101010103888
:1040F0000000000000E74242424242424242423C4B
:104100000000000000E74242442424282818101030
:104110000000000000D692929292AAAA6C444444F5
:104120000000000000E7422424181818242442E765
:104130000000000000EE4444282810101010103831
:1041400000000000007E840408081020204242FC89
:104150000000001E10101010101010101010101081
:104160001E00000040402020101010080804040425
:104170000202007808080808080808080808080863
:104180007800001C22000000000000000000000079
:10419000000000000000000000000000000000001F
:1041A00000FF000000000000000000000000606050
:1041B00020C0000000000000003C421E2242423F9E
:1041C0000000000000C04040405864424242645831
:1041D0000000000000000000001C22404040221CA3
:1041E0000000000000060202021E22424242261B7C
:1041F0000000000000000000003C427E4040423CC5
:1042000000000000000F1110107E10101010107C24
:104210000000000000000000003E444438403C42E2
:10422000423C000000C04040405C6242424242E7E3
:104230000000000000303000007010101010107CE2
:1042400000000000000C0C00001C04040404040422
:104250004478000000C04040404E4850684844EE5A
:104260000000000000701010101010101010107CD2
:10427000000000000000000000FE4949494949EDE6
:10428000000000000000000000DC6242424242E701
:104290000000000000000000003C42424242423C5C
:1042A000000000000000000000D864424242447850
:1042B00040E0000000000000001E22424242221E98
:1042C000020700000000000000EE3220202020F84D
:1042D0000000000000000000003E42403C02427C22
:1042E0000000000000000010107C10101010100CD6
:1042F000000000000000000000C642424242463B6F
:10430000000000000000000000E7422424281010F4
:10431000000000000000000000D79292AAAA4444C6
:104320000000000000000000006E24181818247619
:10433000000000000000000000E7422424281810BC
:1043400010E0000000000000007E44081010227EF3
:10435000000000000000000000000000000000005D
:10436000000000000000000000000000000000004D
:10437000000000000000000000000000000000003D
:10438000000000000000000000000000000000002D
:10439000000000000000000000000000000000001D
:1043A00000000000C4430008000000204800000096
:1043B0006C0100080C440008480000206006000062
:1043C000880100080000000000A24A04000000006C
:1043D00000000000010203040607080900000000B5
:1043E0000102030401020304060708090204060887
:1043F0000000000000000000003F065B4F666D7D7E
:0C440000077F6F777C395E797100000047
:0400000508000131BD
:00000001FF
